:1000000045C0000061C000005FC000005DC000008E
:100010005BC0000059C0000057C0000055C0000080
:1000200053C0000051C000004FC000004DC0000090
:100030004BC0000049C0000047C0000045C00000A0
:1000400043C0000041C000003FC000003DC00000B0
:100050003BC0000039C0000037C0000035C00000C0
:1000600048C0000031C000002FC000002DC00000BB
:100070002BC0000029C0000027C0000025C00000E0
:1000800023C0000021C000001FC0000011241FBEBB
:10009000CFEFD0E4DEBFCDBF11E0A0E0B1E0E6E1FC
:1000A000F1E100E00BBF02C007900D92AC35B10743
:1000B000D9F721E0ACE5B1E001C01D92AB37B20742
:1000C000E1F7D8D00C9489089BCFEAE7F0E0808173
:1000D00086608083ACE7B0E08C9180648C938081F3
:1000E0008860808380818068808380818064808351
:1000F00008951F920F920FB60F9211240BB60F9214
:100100002F938F939F93AF93BF93EF93FF93209180
:1001100078008091790090E0982F8827822BACE7B7
:10012000B0E0EC91E770F0E0EE0FFF1FEB59FE4FEF
:10013000918380838C91873439F480E480937C00B0
:1001400081E080935C0105C0ECE7F0E080818F5F87
:100150008083EAE7F0E0808180648083FF91EF9103
:10016000BF91AF919F918F912F910F900BBE0F90E8
:100170000FBE0F901F90189588B1886088B985E8E8
:100180008A95F1F7000088B1877F88B9089514B87F
:100190008BB18B7F8BB98BB188608BB92F99FECFD8
:1001A000EBDF8FEF84B90895CF93C82FF0DFC5B987
:1001B0008BB1837F8BB9E0DF14B815B8CF91089568
:1001C000CF93C82FE4DFC5B98BB1877F8BB98BB1D3
:1001D00084608BB9D1DF14B815B8CF910895CF934F
:1001E000DF93EC0102C02196EBDF88818111FBCF08
:1001F000DF91CF910895E62FF0E0E150FF4F20818D
:1002000030E020583F4F90E00197820FCDCF089506
:100210008AB18C608AB987B1886087B98FE295E727
:100220000197F1F700C0000081E0BEDF8FE99FE099
:100230000197F1F700C0000088E3B6DF95E89A95D2
:10024000F1F700008CE0B0DF85E88A95F1F7000057
:1002500081E0AADF8FE19EE40197F1F700C0000082
:10026000089581E0A1DF8FE99FE00197F1F700C0D9
:1002700000000895CF93DF93CDB7DEB7A8970FB6F0
:10028000F894DEBF0FBECDBF87B1846087B9C0DFF1
:1002900061E081E0B0DF8CE0E2E1F1E0DE011196A7
:1002A00001900D928A95E1F7CE01019698DF2FEF2C
:1002B00039E688E1215030408040E1F700C000007D
:1002C000D0DF03DFA9D27894CCDFF9D106E0BDD22C
:1002D000882311F0B3D2F82E64E071E08AE08CD26A
:1002E000033009F418C138F4013009F44EC002306B
:1002F00009F48DC093C1053009F44FC108F4C9C099
:10030000063009F08BC1ADDF40E060E080E0F6D15F
:1003100040E060E081E0F2D161E081E06CDF85E007
:10032000EEE1F1E09E012F5F3F4F6901D90101909D
:100330000D928A95E1F7C90152DF62E081E05BDF4F
:100340001F92FF9283E291E09F938F93DF92CF926F
:1003500005D4C60144DF0F900F900F900F900F90BF
:100360000F9036E6F31609F45BC18CE6F81609F433
:1003700059C192E7F91609F457C121E6F21609F4BA
:1003800055C134E6F31287C153C16BDF41E062E32C
:1003900080E0B4D141E062E381E0B0D161E081E08E
:1003A0002ADF88E0E6E2F1E09E012F5F3F4F69011E
:1003B000D90101900D928A95E1F7C90110DF62E041
:1003C00081E019DF1F92FF9283E291E09F938F9368
:1003D000DF92CF92C3D3C60102DF0F900F900F9030
:1003E0000F900F900F9033E7F31609F423C18CE6BA
:1003F000F81609F421C192E7F91609F41FC121E6A4
:10040000F21609F41DC134E6F31245C11BC129DF00
:1004100041E062E380E072D141E06EE181E06ED1C3
:1004200061E081E0E8DE8CE0EEE2F1E09E012F5F2A
:100430003F4F6901D90101900D928A95E1F7C901F9
:10044000CEDE62E081E0D7DE1F92FF9283E291E090
:100450009F938F93DF92CF9281D3C601C0DE0F901E
:100460000F900F900F900F900F9033E7F31609F451
:10047000EBC086E6F81609F4E9C092E7F91609F42C
:10048000E7C021E6F21609F4E5C034E6F31203C131
:10049000E3C0E7DE41E06EE180E030D141E062E3BD
:1004A00081E02CD161E081E0A6DE8DE0EAE3F1E0BD
:1004B0009E012F5F3F4F6901D90101900D928A95EE
:1004C000E1F7C9018CDE62E081E095DE1F92FF92C8
:1004D00083E291E09F938F93DF92CF923FD3C60147
:1004E0007EDE0F900F900F900F900F900F9036E6DA
:1004F000F31609F4B3C08CE6F81609F4B1C091E61E
:10050000F91609F4AFC024E6F21609F4ADC033E7DA
:10051000F312C1C0ABC0A5DE41E06BE480E0EED0D9
:1005200041E06EE181E0EAD061E081E064DE8AE0F2
:10053000E7E4F1E09E012F5F3F4F6901D90101908F
:100540000D928A95E1F7C9014ADE62E081E053DE4F
:100550001F92FF9283E291E09F938F93DF92CF925D
:10056000FDD2C6013CDE0F900F900F900F900F90C0
:100570000F9036E6F31609F47BC08CE6F81609F402
:1005800079C092E7F91609F477C023E7F21609F467
:1005900075C034E6F3127FC073C063DE41E06EE1E4
:1005A00080E0ACD041E06BE481E0A8D061E081E084
:1005B00022DE8BE0E1E5F1E09E012F5F3F4F690114
:1005C000D90101900D928A95E1F7C90108DE62E038
:1005D00081E011DE1F92FF9283E291E09F938F935F
:1005E000DF92CF92BBD2C601FADD0F900F900F9031
:1005F0000F900F900F9036E6F31609F443C08CE687
:10060000F81609F441C092E7F91609F43FC023E750
:10061000F216F1F131E6F3123EC03CC006E03BC0F9
:1006200001E039C002E037C004E035C003E033C068
:1006300005E031C006E02FC002E02DC004E02BC071
:1006400003E029C005E027C006E025C001E023C083
:1006500004E021C003E01FC005E01DC001E01BC095
:1006600002E019C003E017C005E015C006E013C0A2
:1006700001E011C002E00FC004E00DC006E00BC0B5
:1006800005E009C001E007C002E005C004E003C0C6
:1006900006E001C003E010E00BC0E5E1F0E0EC0F84
:1006A000FD1FE10FF11D64E071E08081A5D01F5FA7
:1006B000143198F364E071E08AE09ED008CE87B1EF
:1006C000806F87B98AB180638AB9E0E8F0E0808101
:1006D000826A8083E1E8F0E080818A61808380EA39
:1006E0009FE090938700809386001092890010927B
:1006F000880010928B0010928A000895CF92DF92AA
:10070000EF92FF920F931F93CF93C42F811137C0A5
:100710006623F9F08AB180628AB970E080E090E0E7
:100720002CD1009186001091870020E030E048EC49
:1007300052E48FD06B017C01B80180E090E01DD1C4
:10074000A7019601A8D1EDD070938900609388002D
:1007500003C08AB18F7D8AB9C11107C088B1806496
:1007600088B988B18F7788B93FC0C13009F03CC0E3
:1007700088B18F7B88B988B1806888B935C0662315
:10078000F9F08AB180618AB970E080E090E0F5D03C
:10079000009186001091870020E030E048EC52E4A0
:1007A00058D06B017C01B80180E090E0E6D0A70151
:1007B000960171D1B6D070938B0060938A0003C00C
:1007C0008AB18F7E8AB9C11107C088B1806188B9AA
:1007D00088B18F7D88B908C0C13031F488B18F7E6F
:1007E00088B988B1806288B9CF911F910F91FF902D
:1007F000EF90DF90CF900895CF93C82F8A3011F4F7
:100800008DE0FADF8091C00085FFFCCFC093C60069
:1008100080E090E0CF91089584E091E0909378019A
:10082000809377011092C50083E38093C40088E130
:100830008093C1008EE08093C20008958091C00033
:100840008823E4F78091C60008958091C0008078E5
:1008500008950CD0E6C0DED040F0D5D030F021F4C1
:100860005F3F19F0C7C0511110C1CAC0EBD098F357
:100870009923C9F35523B1F3951B550BBB27AA2721
:1008800062177307840738F09F5F5F4F220F331F93
:10089000441FAA1FA9F333D00E2E3AF0E0E830D05F
:1008A00091505040E695001CCAF729D0FE2F27D062
:1008B000660F771F881FBB1F261737074807AB0730
:1008C000B0E809F0BB0B802DBF01FF2793585F4FA5
:1008D0002AF09E3F510568F08DC0D7C05F3FECF312
:1008E000983EDCF3869577956795B795F7959F5F6A
:1008F000C9F7880F911D9695879597F90895E1E0BE
:10090000660F771F881FBB1F621773078407BA071C
:1009100020F0621B730B840BBA0BEE1F88F7E09577
:10092000089598D088F09F5790F0B92F9927B75124
:10093000A0F0D1F0660F771F881F991F1AF0BA95A3
:10094000C9F712C0B13081F09FD0B1E008959CC0CA
:10095000672F782F8827B85F39F0B93FCCF3869599
:1009600077956795B395D9F73EF4909580957095F6
:1009700061957F4F8F4F9F4F0895E89409C097FB73
:100980003EF490958095709561957F4F8F4F9F4F66
:100990009923A9F0F92F96E9BB279395F6958795AA
:1009A00077956795B795F111F8CFFAF4BB0F11F46D
:1009B00060FF1BC06F5F7F4F8F4F9F4F16C0882314
:1009C00011F096E911C0772321F09EE8872F762F4A
:1009D00005C0662371F096E8862F70E060E02AF08B
:1009E0009A95660F771F881FDAF7880F9695879577
:1009F00097F9089597F99F6780E870E060E008959F
:100A00009FEF80EC089500240A9416161706180626
:100A10000906089500240A94121613061406050602
:100A20000895092E0394000C11F4882352F0BB0F93
:100A300040F4BF2B11F460FF04C06F5F7F4F8F4FF6
:100A40009F4F089557FD9058440F551F59F05F3F31
:100A500071F04795880F97FB991F61F09F3F79F0E0
:100A600087950895121613061406551FF2CF469562
:100A7000F1DF08C0161617061806991FF1CF8695E4
:100A80007105610508940895E894BB2766277727C8
:100A9000CB0197F908950BD0C4CFB5DF28F0BADFAA
:100AA00018F0952309F0A6CFABCF1124EECFCADF03
:100AB000A0F3959FD1F3950F50E0551F629FF00171
:100AC000729FBB27F00DB11D639FAA27F00DB11DCA
:100AD000AA1F649F6627B00DA11D661F829F222753
:100AE000B00DA11D621F739FB00DA11D621F839FDA
:100AF000A00D611D221F749F3327A00D611D231FB0
:100B0000849F600D211D822F762F6A2F11249F57FD
:100B100050408AF0E1F088234AF0EE0FFF1FBB1F20
:100B2000661F771F881F91505040A9F79E3F5105BF
:100B300070F060CFAACF5F3FECF3983EDCF3869570
:100B400077956795B795F795E7959F5FC1F7FE2B6A
:100B5000880F911D9695879597F908950F931F9388
:100B6000CF93DF93CDB7DEB72E970FB6F894DEBFE5
:100B70000FBECDBF0D891E8986E08C831A83098341
:100B80008FEF9FE79E838D83AE01475E5F4F6F8936
:100B9000788DCE01019610D0EF81F885E00FF11F1E
:100BA00010822E960FB6F894DEBF0FBECDBFDF9138
:100BB000CF911F910F9108952F923F924F925F9284
:100BC0006F927F928F929F92AF92BF92CF92DF925D
:100BD000EF92FF920F931F93CF93DF93CDB7DEB7C2
:100BE0002B970FB6F894DEBF0FBECDBF6C017B0113
:100BF0008A01FC0117821682838181FFBFC1CE0169
:100C000001963C01F6019381F70193FD859193FFD5
:100C100081917F01882309F4ADC1853239F493FDB8
:100C2000859193FF81917F01853221F4B60190E097
:100C3000D6D1E8CF912C212C312CFFE1F315D8F03F
:100C40008B3279F038F4803279F08332A1F4232D9D
:100C500020611DC08D3261F0803369F4232D216045
:100C600016C0832D8260382EE32DE4603E2E2AC00C
:100C7000F32DF8601DC037FC2DC020ED280F2A3061
:100C800040F08E32B9F436FC75C1232D2064322E2B
:100C900019C036FE06C08AE0989E200D1124922EBF
:100CA00011C0EAE02E9E200D1124222EF32DF062B9
:100CB0003F2E08C08C3621F4832D8068382E02C068
:100CC000883641F4F70193FD859193FF81917F016F
:100CD0008111B3CF982F9F7D9554933028F40C5FEA
:100CE0001F4F9FE399830DC0833631F0833771F036
:100CF000833509F055C020C0F801808189830E5FDB
:100D00001F4F88248394912C530112C02801F2E0D4
:100D10004F0E511CF801A080B18036FE03C0692D32
:100D200070E002C06FEF7FEFC5014ED14C01820130
:100D3000F32DFF773F2E15C0280122E0420E511CF3
:100D4000F801A080B18036FE03C0692D70E002C0BA
:100D50006FEF7FEFC5012DD14C01F32DF0683F2ED1
:100D6000820133FC19C0822D90E088169906A0F408
:100D7000B60180E290E033D12A94F5CFF50137FC3B
:100D8000859137FE81915F01B60190E028D1211055
:100D90002A9421E0821A91088114910479F7E1C024
:100DA000843611F0893639F5F80137FE07C06081C5
:100DB0007181828193810C5F1F4F08C060817181B6
:100DC000072E000C880B990B0E5F1F4FF32DFF763B
:100DD0003F2E97FF09C090958095709561957F4F44
:100DE0008F4F9F4FF0683F2E2AE030E0A30133D1B0
:100DF000882E861844C0853731F4232D2F7EB22EDD
:100E00002AE030E025C0932D997FB92E8F36C1F0AE
:100E100018F4883579F0AEC0803719F0883721F0A2
:100E2000A9C0E92FE061BE2EB4FE0DC0FB2DF46019
:100E3000BF2E09C034FE0AC0292F2660B22E06C07C
:100E400028E030E005C020E130E002C020E132E0DF
:100E5000F801B7FE07C060817181828193810C5FC8
:100E60001F4F06C06081718180E090E00E5F1F4FD0
:100E7000A301F1D0882E8618FB2DFF773F2E36FE7A
:100E80000DC0232D2E7FA22E891458F434FE0BC0E2
:100E900032FC09C0832D8E7EA82E05C0B82CA32C51
:100EA00003C0B82C01C0B92CA4FE0FC0FE01E80D90
:100EB000F11D8081803321F49A2D997EA92E09C0DD
:100EC000A2FE06C0B394B39404C08A2D867809F0BC
:100ED000B394A3FC10C0A0FE06C0B21480F4280C8A
:100EE000922C9B180DC0B21458F4B60180E290E029
:100EF00076D0B394F8CFB21418F42B1802C0982C03
:100F0000212CA4FE0FC0B60180E390E068D0A2FEC1
:100F100016C0A1FC03C088E790E002C088E590E01D
:100F2000B6010CC08A2D867851F0A1FE02C08BE27A
:100F300001C080E2A7FC8DE2B60190E050D0891498
:100F400030F4B60180E390E04AD09A94F8CF8A94C6
:100F5000F301E80DF11D8081B60190E040D08110D1
:100F6000F6CF222009F44ECEB60180E290E037D0D1
:100F70002A94F7CFF6018681978102C08FEF9FEF09
:100F80002B960FB6F894DEBF0FBECDBFDF91CF9189
:100F90001F910F91FF90EF90DF90CF90BF90AF9097
:100FA0009F908F907F906F905F904F903F902F9089
:100FB0000895FC010590615070400110D8F78095AC
:100FC00090958E0F9F1F0895FC0161507040019015
:100FD0000110D8F7809590958E0F9F1F08950F935D
:100FE0001F93CF93DF93FB01238121FD03C08FEF7C
:100FF0009FEF2CC022FF16C0468157812481358186
:101000004217530744F4A081B1819D012F5F3F4FE8
:10101000318320838C93268137812F5F3F4F378325
:10102000268314C08B01EC01FB010084F185E02DC7
:101030000995892BE1F6D80116968D919C91179709
:10104000019617969C938E931697CE01DF91CF91C0
:101050001F910F910895FA01AA27283051F12031EC
:1010600081F1E8946F936E7F6E5F7F4F8F4F9F4F3C
:10107000AF4FB1E03ED0B4E03CD0670F781F891F7E
:101080009A1FA11D680F791F8A1F911DA11D6A0F4C
:10109000711D811D911DA11D20D009F468943F91FF
:1010A0002AE0269F11243019305D3193DEF6CF01FE
:1010B0000895462F4770405D4193B3E00FD0C9F7C4
:1010C000F6CF462F4F70405D4A3318F0495D31FD31
:1010D0004052419302D0A9F7EACFB4E0A695979584
:1010E000879577956795BA95C9F70097610571055A
:1010F00008959B01AC010A2E0694579547953795A4
:101100002795BA95C9F7620F731F841F951FA01DFD
:061110000895F894FFCFE2
:10111600004014540000000200000000FC03000020
:10112600000048656C6C6F20576F726C64007374B6
:101136006F7000256300666F727761726400736C6E
:1011460069676874206C65667400736C6967687497
:101156002072696768740068617264206C656674E1
:0C116600006861726420726967687400A0
:00000001FF
